:020000040800F2
:10000000900400209D010008670F0008490E0008B9
:10001000650F0008A90200087F1100080000000019
:100020000000000000000000000000006B0F00084E
:10003000AB02000800000000690F00086D0F000807
:10004000B7010008B7010008B7010008B7010008B0
:10005000B7010008B7010008B7010008B7010008A0
:10006000B7010008B7010008B7010008B701000890
:10007000B7010008B7010008B7010008B701000880
:10008000B7010008B7010008B7010008B701000870
:10009000B7010008B7010008B7010008B701000860
:1000A000B7010008B7010008B7010008B701000850
:1000B0000D1000082D100008B7010008B701000856
:1000C000B7010008B7010008B7010008B701000830
:1000D000B7010008B7010008B7010008B701000820
:1000E000B7010008B7010008B7010008B701000810
:1000F000B7010008B7010008B7010008B701000800
:10010000B7010008B7010008B7010008B7010008EF
:10011000B7010008B7010008B7010008B7010008DF
:10012000B7010008B7010008B7010008B7010008CF
:10013000B7010008B7010008B7010008B7010008BF
:10014000B7010008B7010008B7010008B7010008AF
:10015000B7010008B7010008B7010008B70100089F
:10016000B7010008B7010008B7010008B70100088F
:10017000B7010008B7010008B7010008000000003F
:10018000B7010008B7010008DFF80CD000F07AF8DA
:1001900000480047C111000890040020064880472D
:1001A00006480047FEE7FEE7FEE7FEE7FEE7FEE75C
:1001B000FEE7FEE7FEE7FEE7F10F00088901000811
:1001C0002DE9F05F0546002092469B46884606468C
:1001D000814640241BE0284641464746224600F01F
:1001E00041F853465A46C01A914110D31146184659
:1001F000224600F028F82D1A67EB01084F462246E8
:100200000120002100F01FF817EB00094E41201ECD
:10021000A4F10104DFDC484631462A464346BDE8E6
:10022000F09FD2B201E000F8012B491EFBD27047CB
:100230000022F6E710B513460A4604461946FFF7B2
:10024000F0FF204610BD202A04DB203A00FA02F11C
:10025000002070479140C2F1200320FA03F31943B4
:1002600090407047202A04DB203A21FA02F0002156
:10027000704721FA02F3D040C2F1200291400843B6
:1002800019467047064C074D06E0E06840F0010350
:1002900094E8070098471034AC42F6D3FFF778FF94
:1002A0001812000838120008FEE770472DE9F84FD1
:1002B00000224FF0010803254FF00F0E0B6808FADB
:1002C00002F42340A3426ED14E68012E05D0022EC7
:1002D00003D0112E01D0122E12D186684FEA420CA3
:1002E00005FA0CF7BE43CF6807FA0CF7374387606F
:1002F0004668A6430C79C4F3001494403443446028
:10030000C668570005FA07FC8C6826EA0C06BC4054
:100310003443C4604C68022C01D0122C13D1D40891
:1003200000EB8404A346D4F8209054074FEAD46A23
:100330000EFA0AF629EA06090E6906FA0AF646EAEC
:100340000906CBF8206006680C7926EA0C0604F052
:100350000304BC40344304604C68E40065D5364C6B
:10036000266846F480462660246822F0030604F4DA
:1003700080440094314C3444A446D4F8084896078D
:10038000370F0EFA07F6B4432D4EB04201D10026C6
:1003900024E02C4EB04201D101261FE02A4EB0428B
:1003A00002D102261AE040E0284EB04201D10326D5
:1003B00014E0274EB04201D104260FE0254EB04292
:1003C00001D105260AE0244EB04201D1062605E0FF
:1003D000224EB04201D1072600E00826BE40264347
:1003E000CCF808681E4E34684F689C43FF0300D564
:1003F0001C4334601A4C241D26684F689E43BF037B
:1004000000D51E432660164E083634684F689C435C
:10041000FF0200D51C433460114E0C3634684F681F
:100420009C43BF0200D51C433460521C102AFFF4C9
:1004300045AFBDE8F88F000044380240003001406D
:10044000000002400004024000080240000C02408C
:10045000001002400014024000180240001C02403C
:10046000003C0140426931EA020200D10904816185
:1004700070470AB1816170470904FBE70148806851
:100480007047000000000020024881680278114493
:1004900081607047000000200B4810B5016841F4EE
:1004A00000710160016841F480610160016841F4FC
:1004B00080710160032000F071F8002000F006F860
:1004C00000F024F8002010BD003C024070B50D4D36
:1004D00004464FF47A712878B1FBF0F00A490968B4
:1004E000B1FBF0F000F0E4FA48B9102C07D200227A
:1004F0002146501E00F032F800206C6070BD0120D3
:1005000070BD0000000000200C0000200B4882B0ED
:10051000016841F480410160006800F4804000906F
:100520000648001F016841F080510160006800F03A
:1005300080500090072002B000F030B844380240EC
:10054000002809DB00F01F020121914040098000D2
:1005500000F1E020C0F8001170470000F0B40E4B2D
:100560001B680C46C3F30223C3F10705042D00D911
:100570000425191D072901D2002300E0DB1E0126F6
:1005800006FA05F1491E214099409E40761E16400C
:100590003143F0BC00F0F4BD0CED00E0064900F082
:1005A000070208684FF6FF03184040EA0220034A9A
:1005B00010430860704700000CED00E00000FA05F1
:1005C0002DE9F0470E46050065D0DFF81481D8F814
:1005D0000000F7B200F00F00B04207D288F80070B8
:1005E000D8F8000000F00F00B04254D128683D4C0C
:1005F000810712D5400703D5206840F4E050206001
:100600002878000703D5206840F460402060206807
:10061000A96820F0F000084320602878C0072DD09A
:10062000304968680839012812D0022813D00328FD
:1006300011D00968890700292DDA216821F003010A
:1006400001432160FFF71AFF814641F2883A0EE02C
:1006500009688903EFE709688901ECE7FFF70EFFF6
:10066000A0EB0901514502D90320BDE8F0872068BD
:10067000696800F00C00B0EB810FEFD1D8F80010E2
:10068000404601F00F01B14207D90770006800F041
:100690000F00B04201D00120E7E72878400705D5D8
:1006A0002068E96820F4E0500843206028780007BB
:1006B00006D52068296920F4604040EAC100206026
:1006C00000F018F82168084AC1F30311515CC840D2
:1006D0000649086006480068FFF7F8FE0020C4E7F6
:1006E000003C024008380240081200080C000020BC
:1006F00004000020154810B5006810F00C021448E2
:1007000013D04110042A0FD0082A0ED10F4C241FF9
:100710002268236802F03F025B0207D52068C0F31D
:100720008810A0FB010106E0084610BD2168C1F356
:100730008811A1FB00010023FFF742FD2168C1F3EE
:100740000141491C4900B0FBF1F010BD08380240DE
:100750000024F4002DE9F84F040076D02078DFF86B
:1007600038A3CE4DC00749D0DAF800105046C1F387
:100770008101012908D00068C0F3810002280AD154
:10078000281D0068400206D52868800336D56068B9
:100790000028E2D032E06068B0F5803F10D0B0F5BC
:1007A000A02F286810D020F480302860286820F41A
:1007B000802028606068A0B1FFF760FE06460CE06C
:1007C000286840F48030F4E740F480202860F7E7A0
:1007D000FFF754FE801B642873D828688003F7D580
:1007E0000CE0FFF74BFE064605E000BFFFF746FEB4
:1007F000801B6428F0D828688003F7D42078DFF8BD
:10080000A08280074FF000093ED5DAF8001050466C
:1008100011F00C0F09D00068C0F3810002280BD141
:100820009D48001F0068400206D42868800715D53F
:10083000E068012809D111E0E068B8B10120C8F8EA
:100840000000FFF71BFE064605E020E1FFF716FE5D
:10085000801B0228C0D828688007F7D5286821693E
:1008600020F0F80040EAC10028600DE0C8F80090D0
:10087000FFF704FE064604E0FFF700FE801B022897
:100880001FD828688007F7D42078000722D5824E29
:10089000844861696C3671B101210160FFF7EEFD9A
:1008A000074604E0FFF7EAFDC01B022809D83068BC
:1008B0008007F7D50EE0C0F80090FFF7DFFD074690
:1008C00005E082E0FFF7DAFDC01B02287DD8306822
:1008D0008007F7D42078400768D5DFF8BCB100273F
:1008E0000BF1380BDBF80000C0000BD4DBF8001074
:1008F00041F08051CBF80010DBF80000012700F038
:1009000080500090684E3068C00510D4306840F4C4
:1009100080703060FFF7B2FD009005E0FFF7AEFD9C
:100920000099401A022850D83068C005F6D55A4EB2
:10093000A068683601280FD00528306810D020F054
:1009400001003060306820F004003060A068B8B169
:10095000FFF794FD00900FE0306840F00100F4E7ED
:1009600040F004003060F7E7FFF788FD0099411A76
:1009700041F28830814266D830688007F4D50EE0B5
:10098000FFF77CFD009007E0FFF778FD0099411A22
:1009900041F28830814256D830688007F4D42FB1B4
:1009A000DBF8001021F08051CBF80010A069D0B323
:1009B000DAF800205146C2F38102022A4AD0022806
:1009C000484607D0C8F8600000E03CE0FFF756FD5D
:1009D00004463BE04746C8F86000FFF74FFD064677
:1009E00005E000BFFFF74AFD801B02282BD82868CE
:1009F0008001F7D4D4E907010843A16A2B4A4908CA
:100A000002EB0141626A41EA8211084394F82C101A
:100A100040EA01612048001F016001203866FFF7AD
:100A20002DFD044605E034E0FFF728FD001B0228F9
:100A300009D828688001F7D52BE000BFFFF71EFD1D
:100A4000001B022802D90320BDE8F88F2868800126
:100A5000F4D41EE00128F7D00868E26900F48001B0
:100A6000914214D1226A00F03F0191420FD147F622
:100A7000C071626A0140914209D1A26A00F440311A
:100A8000914204D1E16A00F07060884201D00120F7
:100A9000DAE70020D8E700000838024000380240BA
:100AA00000004742800E4742007000400000FFFFF8
:100AB00010B5401EB0F1807F01D3012010BD4FF072
:100AC000E02460610F21601700F05AFB0020A06154
:100AD00007202061002010BD7047704770B590F866
:100AE0003C20012A32D0012480F83C40022280F8C8
:100AF0003D2003685A689D6822F070060A683243F8
:100B00005A60134B02689A4214D0B2F1804F11D050
:100B1000104B9A420ED0104B9A420BD00F4B9A4278
:100B200008D00F4B9A4205D00E4B9A4202D00E4B82
:100B30009A4204D1496825F080031943916080F8F6
:100B40003D40002180F83C10084670BD022070BD79
:100B5000000001400004004000080040000C00407C
:100B600000040140004001400018004010B504009E
:100B700003D094F83D0010B107E0012010BD002023
:100B800084F83C00204600F00DF8022084F83D0077
:100B9000211D206800F05AFA012084F83D00002051
:100BA00010BD000008B501680B48B1F1804F0BD0B3
:100BB0000A4A914207D1016841F0020101600068D0
:100BC00000F00200009008BD016841F001010160E1
:100BD000006800F00100F5E74038024000040040E2
:100BE0000168CA6842F00102CA600068816801F0C9
:100BF0000701062903D0016841F0010101600020CE
:100C0000704770B5044690F83C00012817D00125C4
:100C100084F83C50022084F83D002068826822F06D
:100C2000770222F47F4282600868502830D00DDCC1
:100C300020284DD005DC98B310283BD148E0022095
:100C400070BD302844D0402834D139E0602828D005
:100C5000702806D0B0F5805F2CD0B0F5005F29D1A8
:100C60000AE0CB68D1E90121206800F053FA20683E
:100C7000816841F0770109E0CB68D1E90121206862
:100C800000F048FA2068816841F48041816011E0F9
:100C9000CA684968206800F04FFA5021206807E0D0
:100CA00016E0CA684968206800F057FA6021206899
:100CB00000F03AFA84F83D50002084F83C0070BD02
:100CC000CA684968206800F037FA40212068EFE7D9
:100CD000226801461046EBE7704770B5044600688D
:100CE00001694FF00005C943890715D4C168C9439C
:100CF000890711D4E91E01610120207720688069ED
:100D00008007204602D0FFF7E7FF04E000F098F8E4
:100D1000204600F096F8257720680169C943490705
:100D200017D4C168C943490713D46FF004010161A6
:100D3000022020772068806910F4407F204602D08E
:100D4000FFF7CAFF04E000F07BF8204600F079F8D6
:100D5000257720680169C943090716D4C168C943CA
:100D6000090712D46FF00801016104202077206880
:100D7000C0698007204602D0FFF7AEFF04E000F014
:100D80005FF8204600F05DF8257720680169C943C7
:100D9000C90617D4C168C943C90613D46FF010013E
:100DA0000161082020772068C06910F4407F204648
:100DB00002D0FFF791FF04E000F042F8204600F077
:100DC00040F8257720680169C943C90708D1C1687F
:100DD000C943C90704D1891E0161204600F032F8D9
:100DE00020680169C943090609D4C168C9430906D5
:100DF00005D46FF0800101612046FFF76DFE206889
:100E00000169C943490609D4C168C943490605D4E3
:100E10006FF040010161204600F015F8206801697B
:100E2000C94389060BD4C168C943890607D46FF04A
:100E3000200101612046BDE87040FFF74EBE70BD45
:100E40007047704770477047FEE70000F0B587B005
:100E500014216846FFF7ECF915480024016841F0B9
:100E600001010160016801F001010591016841F093
:100E70000801016000680F4F00F008004FF4704651
:100E80000590224631463846FFF7F3FA0125CDE9B1
:100E90000054694608480294FFF708FA0096CDE925
:100EA0000154694638460394FFF700FA07B0F0BDD5
:100EB00030380240000C02400000024010B586B0FD
:100EC00000241248009401940294039404944FF077
:100ED00080410594016048F69F41C0E901144FF438
:100EE0007A71C0E903148461FFF740FE4FF480502B
:100EF000009069460548FFF784FE049404A903485E
:100F00000594FFF7EBFD06B010BD000010000020B7
:100F100010B586B000241248009401940294039402
:100F200004940E490594016048F69F41C0E90114FC
:100F30004FF47A61C0E903148461FFF717FE4FF4A0
:100F40008050009069460648FFF75BFE049404A9B0
:100F500003480594FFF7C2FD06B010BD0004004031
:100F600050000020FEE7704770477047FFF78CBACB
:100F700030B593B030216846FFF75AF914210CA818
:100F8000FFF756F918480025016841F080510160CB
:100F9000006800F0805011901448016841F48041CD
:100FA00001600068022400F4804011900120039049
:100FB00010200490009406940820CDE907504820A2
:100FC000CDE9090407200B906846FFF7C3FB0CA985
:100FD0000F2081E83100E0020F90109002210CA850
:100FE000FFF7EEFA13B030BD403802400070004009
:100FF0000548016841F47001016003494FF0006049
:10100000803908607047000088ED00E010B50548A1
:10101000FFF763FEBDE810404FF480510248FFF730
:1010200021BA000010000020000C024010B5054855
:10103000FFF753FEBDE810404FF480410248FFF730
:1010400011BA000050000020000C0240F0B5026808
:10105000254C264D264E274F274B4FF0804CA04263
:1010600009D0604507D0A84205D0B04203D0B842AD
:1010700001D0984204D122F0700E4A6842EA0E0272
:10108000A0421BD0604519D0A84217D0B04215D05D
:10109000B84213D0984211D0184DA8420ED0184D26
:1010A000A8420BD0174DA84208D0174DA84205D032
:1010B000164DA84202D0164DA84203D122F4407525
:1010C000CA682A434D6922F080022A4302608A6876
:1010D000C2620A688262A04201D0984201D10969C5
:1010E000016301214161F0BD0000014000040040A6
:1010F00000080040000C0040000401400040014096
:10110000004401400048014000180040001C00401D
:101110000020004010B5846842EA032224F47F4492
:101120000A432243826010BD826822F070020A43A3
:1011300042F007018160704710B5036A046A24F029
:1011400001040462846924F0F00444EA021423F0E8
:101150000A020A438461026210BD10B5036A23F0DB
:10116000100303628369046A23F4704343EA023282
:1011700024F0A00343EA01118261016210BDFEE781
:101180000907090E002804DB00F1E02080F80014B4
:10119000704700F00F0000F1E02080F8141D704748
:1011A00002E008C8121F08C1002AFAD17047704730
:1011B000002001E001C1121F002AFBD1704700008E
:1011C000FFF76AF9FFF7D4FEFFF740FEFFF776FE60
:1011D000FFF79EFE002211461C20FFF7BFF91C20DE
:1011E000FFF7AEF9002211461D20FFF7B7F91D20C9
:1011F000FFF7A6F90348FFF7F3FC02484030FFF77A
:10120000EFFCFEE7100000200000000000000000DE
:101210000102030406070809381200080000002034
:1012200010000000A0110008481200081000002063
:1012300080040000B0110008010000001000000050
:08124000000000000024F4008E
:040000050800018965
:00000001FF
